:100000000C9464000C948C000C948C000C948C0068
:100010000C948C000C948C000C948C000C948C0030
:100020000C948C000C948C000C948C000C948C0020
:100030000C948C000C948C000C948C000C948C0010
:100040000C94BB090C948C000C94440C0C94920CF2
:100050000C948C000C948C000C948C000C948C00F0
:100060000C940C080C948C00000000002400270065
:100070002A0000000000250028002B0000000000DE
:1000800023002600290004040404040404040202DA
:100090000202020203030303030301020408102007
:1000A0004080010204081020010204081020000012
:1000B0000007000201000003040600000000000029
:1000C00000007803A806FE0D11241FBECFEFD8E074
:1000D000DEBFCDBF12E0A0E0B1E0E0EAFDE102C08A
:1000E00005900D92A431B107D9F713E0A4E1B2E075
:1000F00001C01D92A23AB107E1F710E0C8ECD0E0D0
:1001000004C02297FE010E94CA0EC23CD107C9F763
:100110000E94F90A0C94CE0E0C940000CF93DF934A
:10012000EC0180E893E060E071E00E942D0CCA30A1
:10013000D1052CF480E893E060E30E94320B80E864
:1001400093E0BE014AE050E00E941A0CDF91CF918B
:100150000895EF92FF920F931F930E946606BC01D1
:1001600000E813E0C8014AE050E00E941A0C0E9427
:100170005E060E948E000E9456060E948E0082E05B
:10018000E82E81E0F82EC801B7010E942D0C0E94D4
:100190004E06BC01C8014AE050E00E941A0CC8019A
:1001A000B7010E942D0C0E944606BC01C8014AE01E
:1001B00050E00E941A0CC801B7010E942D0C0E9449
:1001C0004106BC01C8014AE050E00E941A0CC80177
:1001D0000E943A0B1F910F91FF90EF9008956F923C
:1001E0007F928F929F92BF92CF92DF92EF92FF9277
:1001F0000F931F93DF93CF93CDB7DEB72A970FB638
:10020000F894DEBF0FBECDBF3E010894611C711C87
:100210009BE0892E912C8C0E9D1EECC080E893E013
:100220000E94850D182F80E893E0612F0E94320B09
:100230001435D1F5EE24FF248701CC24DD2480E899
:1002400093E00E94850DB82E80538A30B8F4C8011F
:10025000B7012AE030E040E050E00E94540E2B2D20
:10026000332727FD30952053304079010027F7FCD4
:100270000095102FE60EF71E081F191F0894C11CC9
:10028000D11C8AE0C816D104D1F6E114F1040105AD
:10029000110509F4AFC0C801B7010E942F03C801BE
:1002A000B7010E948A051BC0133561F400E010E01D
:1002B00080E893E00E94850D0F5F1F4F0A30110503
:1002C000B9F70DC0103571F400E010E080E893E05C
:1002D0000E94850D0F5F1F4F0A301105B9F70E946C
:1002E000A90088C0123509F085C0830180E893E039
:1002F0000E94850DF80181938F01E815F905B1F78A
:1003000089818534C9F51A8180E893E0612F0E94C4
:10031000320B1233A9F0133324F4113309F066C001
:1003200006C01333B1F0143309F060C01BC080E87D
:1003300093E064E071E00E942D0C8091DC011AC012
:1003400080E893E065E171E00E942D0C8091DE0170
:1003500011C080E893E066E271E00E942D0C80916C
:10036000E00108C080E893E067E371E00E942D0C93
:100370008091E20161E038C08134C1F51A8180E8E2
:1003800093E0612F0E94320B123399F013331CF467
:10039000113361F505C01333A9F0143339F51BC0CF
:1003A00080E893E068E471E00E942D0C8091DC010C
:1003B0001AC080E893E067E571E00E942D0C8091FF
:1003C000DE0111C080E893E066E671E00E942D0C2A
:1003D0008091E00108C080E893E065E771E00E9449
:1003E0002D0C8091E20160E00E94A50A80E893E074
:1003F0000E943A0B80E893E00E94540D0B970CF09A
:100400000DCF2A960FB6F894DEBF0FBECDBFCF91A9
:10041000DF911F910F91FF90EF90DF90CF90BF90F1
:100420009F908F907F906F90089580E893E00E9456
:10043000540D892B11F00E94EF0068EE73E080E00C
:1004400090E00E94110A089568EB7BE080E090E064
:100450000E94110A80E893E040E855E260E070E015
:100460000E94CD0C80E893E064E871E00E94300CBB
:1004700088E593E00E942A060E948505029729F0EC
:1004800080E893E064EA71E004C080E893E060EC07
:1004900071E00E94300C0895482F6AE00E94730EAC
:1004A000282F30E084E0220F331F8A95E1F7842F54
:1004B0000E94730E892F820F0895EF92FF920F937F
:1004C0001F937C0105E712E0C80168E670E00E9416
:1004D0006E06C80160E00E94F006F70180810E946C
:1004E0004C02682FC8010E94F006F70181810E942A
:1004F0004C02682FC8010E94F006F70182810E9419
:100500004C02682FC8010E94F006F70183810E9407
:100510004C02682FC8010E94F006F70184810E94F6
:100520004C02682FC8010E94F006F70185810E94E5
:100530004C02682FC8010E94F006F70186818E5197
:100540000E944C02682FC8010E94F006C8010E9458
:1005500033071F910F91FF90EF900895DF92EF9274
:10056000FF920F931F937C0105E712E0C80168E634
:1005700070E00E946E06C80160E00E94F006C801AB
:100580000E943307C80168E670E047E050E00E942F
:100590004407C8010E948106282F2F7722952F70CB
:1005A0009AE0D92E2D9D900111248F70820FF701B2
:1005B0008083C8010E948106282F22952F702D9DCF
:1005C000900111248F70820FF7018183C8010E946E
:1005D0008106282F2F7322952F702D9D90011124B5
:1005E0008F70820FF7018283C8010E948106282F35
:1005F00022952F702D9D900111248F70820FF7018D
:100600008383C8010E948106282F22952F702D9D7B
:10061000900111248F70820FF7018483C8010E941A
:100620008106282F22952F702D9D900111248F7007
:10063000820FF7018583C8010E948106282F2F7041
:10064000225E82958F708D9DC0011124280FF701C5
:1006500026831F910F91FF90EF90DF9008950F93E5
:100660001F93DF93CF93CDB7DEB727970FB6F894DC
:10067000DEBF0FBECDBF8E010F5F1F4FA8010E94CE
:100680007D03898180688983C8010E945D02898118
:100690008F778983C8010E945D0227960FB6F89470
:1006A000DEBF0FBECDBFCF91DF911F910F91089597
:1006B0000F931F93DF93CF93CDB7DEB727970FB676
:1006C000F894DEBF0FBECDBF8E010F5F1F4FC80174
:1006D0000E94AE02C8010E94AE0427960FB6F8949D
:1006E000DEBF0FBECDBFCF91DF911F910F91089557
:1006F00085E792E00E94480708958F929F92AF92FB
:10070000BF92CF92DF92EF92FF920F931F93CF93FE
:10071000DF937B018C01EA012CE330E040E050E004
:100720000E94920E6883C801B7012CE330E040E0DC
:1007300050E00E94920E122F032FF42EE52E622F0E
:10074000732F842F952F2CE330E040E050E00E947F
:10075000920E6983612F702F8F2D9E2D2CE330E038
:1007600040E050E00E94920E122F032FF42EE52E4F
:10077000622F732F842F952F28E130E040E050E066
:100780000E94920E6A83612F702F8F2D9E2D28E17B
:1007900030E040E050E00E94920E79018A01C801E9
:1007A000B7016C5F7F4F8F4F9F4F27E030E040E0F5
:1007B00050E00E94920E6F5F6B8320E0AA24BB245E
:1007C000650101C02F5F822E9924F401EE54F84F89
:1007D000CF0183709070892B99F4CF0164E670E0AB
:1007E0000E947F0E892B39F4CF0160E971E00E94ED
:1007F0007F0E892B29F48EE691E0A0E0B0E004C0E2
:100800008DE691E0A0E0B0E0A80EB91ECA1EDB1E86
:10081000C501A0E0B0E0E816F9060A071B0790F64C
:100820002E83F401EE54F84F83E0882E912C8E2213
:100830009F228114910499F4CF0164E670E00E9434
:100840007F0E892B39F4CF0160E971E00E947F0EA1
:10085000892B29F48EE691E0A0E0B0E004C08DE69B
:1008600091E0A0E0B0E0A81AB90ACA0ADB0A980130
:1008700087010A191B092C093D09CF0164E670E0C4
:100880000E947F0E7C01CF0160E971E00E947F0E23
:10089000AC01E8EEF1E060E0613051F481149104C4
:1008A00049F4E114F10441F44115510529F002C065
:1008B000808103C08CE101C08DE190E0A0E0B0E058
:1008C000081719072A073B0740F0081B190B2A0BCA
:1008D0003B0B6F5F31966C30F9F66F5F6D83802F45
:1008E0008F5F8C83DF91CF911F910F91FF90EF90DD
:1008F000DF90CF90BF90AF909F908F900895EF9230
:10090000FF920F931F937B018C0180912B0290919A
:100910002C02A0912D02B0912E02E816F9060A07CA
:100920001B0771F0C801B70140E252E00E947D034D
:10093000E0922B02F0922C0200932D0210932E02D3
:100940001F910F91FF90EF9008950E947F042091D6
:10095000260230E02E54384FC90108954F925F921D
:100960006F927F928F929F92AF92BF92CF92DF92BF
:10097000EF92FF920F931F93CF93DF934C01DC0113
:1009800016961C91612F70E080E090E020E833E340
:1009900041EE51E00E94540E5B016C0122EB37E006
:1009A000E12FF0E0EE54F84F1DC0C9018370907044
:1009B000892BB1F4C90164E670E00E947F0E892B97
:1009C00039F4C90160E971E00E947F0E892B41F47E
:1009D00080E891E5A1E0B0E0A80EB91ECA1EDB1EBA
:1009E0002F5F3F4F2E173F0701F7D40115968C91CB
:1009F000482E5524C90164E670E00E947F0E7C01F8
:100A0000C90160E971E00E947F0E8C01C1E0D0E075
:100A100093E0692E712C6222732227C0C230D10567
:100A200091F46114710479F4E114F10419F40115DD
:100A3000110549F480E89BE3A6E2B0E0A80EB91ED8
:100A4000CA1EDB1E11C0FE01E951FE4F608170E03D
:100A500080E090E020E831E541E050E00E94540E53
:100A6000A60EB71EC81ED91E2196C415D505B4F210
:100A7000D40112966C9170E080E090E020E13EE0BD
:100A800040E050E00E94540E7B018C01F401618132
:100A900070E080E090E02CE330E040E050E00E9425
:100AA000540EE60EF71E081F191FD4018C91E80E94
:100AB000F11C011D111D14966C9170E06150704085
:100AC000882777FD8095982F20E831E541E050E0B8
:100AD0000E94540EE60EF71E081F191FEA0CFB1C9D
:100AE0000C1D1D1DB701C801DF91CF911F910F9102
:100AF000FF90EF90DF90CF90BF90AF909F908F903E
:100B00007F906F905F904F90089580911E0290911A
:100B10001F020895609316027093170280931802C3
:100B2000909319022091E4013091E5014091E60192
:100B30005091E701260F371F481F591F20931A02B3
:100B400030931B0240931C0250931D0282E090E000
:100B500090931F0280931E020E94030A6093270253
:100B6000709328028093290290932A020895EF92AD
:100B7000FF920F931F931CC02F5F3F4F4F4F5F4F4C
:100B800020931602309317024093180250931902D3
:100B900088EE93E0A0E0B0E0E80EF91E0A1F1B1FEC
:100BA000E0922702F09228020093290210932A0271
:100BB0000E94030AE0902702F09028020091290287
:100BC00010912A026E197F09800B910B2091160259
:100BD000309117024091180250911902685E7340DB
:100BE0008040904048F680911A0290911B02A0919B
:100BF0001C02B0911D02281739074A075B07E8F06D
:100C0000E0911402F09115023097B9F00995611541
:100C100071058105910519F00E948A050EC020E03A
:100C200030E080911E0290911F02892B11F021E08B
:100C300030E030931F0220931E02609116027091E3
:100C4000170280911802909119021F910F91FF9045
:100C5000EF900895909315028093140280911602EC
:100C600090911702A0911802B091190280931A0274
:100C700090931B02A0931C02B0931D020E94B70523
:100C800008950E94B7050E94A50408950E94B70523
:100C90000E947F048091250290E008950E94B7058C
:100CA0000E947F048091240290E008950E94B7057D
:100CB0000E947F048091200290E008950E94B70571
:100CC0000E947F048091210290E008950E94B70560
:100CD0000E947F048091220290E0089581E0809339
:100CE000740260935102109272021092730208957E
:100CF0002091500230E080914F02281B3109C90138
:100D0000089540914F0280915002481718F02FEF3C
:100D10003FEF0AC0E42FF0E0E15DFD4F8081282F16
:100D200030E04F5F40934F02C9010895E0914F02B8
:100D300080915002E81718F0EFEFFFEF06C0F0E0E7
:100D4000E15DFD4F8081E82FF0E0CF010895089527
:100D5000109278021092770288EE93E0A0E0B0E063
:100D60008093790290937A02A0937B02B0937C02E5
:100D700088EF91E090937602809375020895CF9268
:100D8000DF92EF92FF920F931F93CF93DF937C013B
:100D90006B018A01809174028823A1F0C0E0D0E049
:100DA0000DC0D701ED91FC91D601AC0FBD1F019094
:100DB000F081E02DC7016C9109952196C017D107EC
:100DC00080F304C0CB01642F0E94F107C801DF91BA
:100DD000CF911F910F91FF90EF90DF90CF900895EA
:100DE000DF93CF930F92CDB7DEB7FC01698380917B
:100DF00074028823C9F080917302803238F081E058
:100E000090E09383828320E030E015C080917202ED
:100E1000E82FF0E0EE5AFD4F998190838F5F809329
:100E200072028093730205C0CE01019661E00E94B8
:100E3000F10721E030E0C9010F90CF91DF910895D3
:100E40000F93062F8091510262E572E04091730288
:100E500021E00E949C07109272021092730210927D
:100E600074020F91089561E00E94200708954132B5
:100E700008F040E2862F6FE272E00E945307109262
:100E80004F0280935002089521E00E943707089591
:100E900010924F021092500210927202109273023E
:100EA0000E949D090895382F413210F040E042C061
:100EB000809181028823E1F791E090938102209351
:100EC00083028FEF8093EE021092A902415040936B
:100ED000AA024F5F9093820280918202330F832B8C
:100EE0008093820280918402813041F410928402C6
:100EF000809182028093BB0085EC01C085EE8093D7
:100F0000BC00809181028130E1F38091A9028417B5
:100F100010F44091A90220E030E00AC0FB01E20F8A
:100F2000F31FD901A757BD4F8C9180832F5F3F4F8F
:100F30002417A0F3842F08950F931F93582F122F77
:100F4000413210F081E04AC0809181028823E1F7AC
:100F500082E080938102009383028FEF8093EE0200
:100F60001092A9024093AA02A9E8B2E0FB0102C0D4
:100F700081918D938E2F861B8417D0F3109282025D
:100F800080918202550F852B80938202809184028A
:100F9000813041F410928402809182028093BB00E0
:100FA00085EC01C085EE8093BC00112321F0809177
:100FB00081028230E1F38091EE028F3F11F480E0F4
:100FC0000DC08091EE02803211F482E007C0809162
:100FD000EE02803311F084E001C083E01F910F9195
:100FE0000895482F613210F081E0089580918102C8
:100FF000843011F082E008956093CC02ABEAB2E055
:10100000842F9C01F90102C081918D938E2F841B46
:101010008617D0F380E008951F920F920FB60F92BB
:1010200011242F933F934F935F936F937F938F93ED
:101030009F93AF93BF93EF93FF938091B90090E09C
:10104000887F90708036910509F4F2C08136910551
:10105000CCF58832910509F47BC089329105B4F44E
:101060008031910509F46FC0813191053CF40097FE
:1010700009F447C1089709F04FC165C0883191054F
:1010800009F466C0809709F047C182C08034910599
:1010900009F4A4C08134910544F48033910509F426
:1010A00082C0C89709F038C189C08035910509F41C
:1010B00089C08835910509F496C08834910509F0F6
:1010C0002BC1AEC08839910509F413C18939910546
:1010D000ECF48837910509F4ABC0893791054CF4DD
:1010E0008836910509F4A4C08037910509F014C130
:1010F0009FC08838910509F4FCC08039910509F436
:101100009DC08038910509F007C198C0803B9105CA
:1011100009F4C6C0813B91054CF4803A910509F46D
:101120009FC0883A910509F0F7C0BAC0803C91058C
:1011300009F4E3C0883C910509F4DFC0883B9105C0
:1011400009F0EAC0C2C0809182028093BB00CFC088
:101150009091A9028091AA02981768F49091A9022F
:10116000E92FF0E0E757FD4F80818093BB009F5F40
:101170009093A902BCC080918302882309F44BC0DC
:1011800085ED8093BC008091BC0084FDFCCFC2C083
:1011900080E28093EE0285ED8093BC008091BC00DC
:1011A00084FDFCCFB7C080E38093EE0285ED809391
:1011B000BC008091BC0084FDFCCFACC088E3809370
:1011C000EE029BC08091A9029091BB00E82FF0E055
:1011D000E757FD4F90838F5F8093A9029091A902FA
:1011E0008091AA0282C08091A9029091BB00E82F51
:1011F000F0E0E757FD4F90838F5F8093A9028091C5
:101200008302882341F085ED8093BC008091BC006F
:1012100084FDFCCF7FC081E08093840284EA6EC0AD
:1012200085ED8093BC008091BC0084FDFCCF72C032
:1012300083E0809381021092ED0259C08091ED020B
:10124000803208F056C08091ED029091BB00E82FEB
:10125000F0E0E353FD4F90838F5F8093ED0247C032
:101260008091ED02803230F4E091ED02F0E0E35342
:10127000FD4F108285ED8093BC008091BC0084FD01
:10128000FCCF109281026091ED02E0918702F09113
:1012900088028DEC92E070E009951092ED022DC06D
:1012A00084E0809381021092CB021092CC02E091F4
:1012B0008502F091860209958091CC02882329F459
:1012C00081E08093CC021092AB029091CB02E92F87
:1012D000F0E0E555FD4F80818093BB009F5F9093C8
:1012E000CB029091CB028091CC02981710F485EC40
:1012F00001C085E88093BC000FC085EC8093BC00E2
:1013000009C01092EE0285ED8093BC008091BC0074
:1013100084FDFCCF10928102FF91EF91BF91AF91BC
:101320009F918F917F916F915F914F913F912F91FD
:101330000F900FBE0F901F9018951092810281E0C0
:10134000809383021092840282E161E00E94A50AE8
:1013500083E161E00E94A50AE9EBF0E080818E7FE5
:10136000808380818D7F808388E48093B80085E4CA
:101370008093BC0008951F920F920FB60F92112414
:101380002F933F938F939F93AF93BF938091F302DB
:101390009091F402A091F502B091F6023091F7021B
:1013A0000196A11DB11D232F2D5F2D3720F02D5744
:1013B0000196A11DB11D2093F7028093F302909333
:1013C000F402A093F502B093F6028091EF0290919F
:1013D000F002A091F102B091F2020196A11DB11D9F
:1013E0008093EF029093F002A093F102B093F20287
:1013F000BF91AF919F918F913F912F910F900FBE11
:101400000F901F9018958FB7F8942091F3023091A8
:10141000F4024091F5025091F6028FBFB901CA0162
:1014200008959B01AC017FB7F8948091EF029091F1
:10143000F002A091F102B091F20266B5A89B05C03E
:101440006F3F19F00196A11DB11D7FBFBA2FA92FC3
:10145000982F8827860F911DA11DB11D62E0880F6E
:10146000991FAA1FBB1F6A95D1F7BC012DC0FFB7FA
:10147000F8948091EF029091F002A091F102B09166
:10148000F202E6B5A89B05C0EF3F19F00196A11D39
:10149000B11DFFBFBA2FA92F982F88278E0F911D3E
:1014A000A11DB11DE2E0880F991FAA1FBB1FEA957D
:1014B000D1F7861B970B885E9340C8F221503040CD
:1014C0004040504068517C4F211531054105510580
:1014D00071F60895789484B5826084BD84B5816086
:1014E00084BD85B5826085BD85B5816085BDEEE62C
:1014F000F0E0808181608083E1E8F0E0108280810B
:1015000082608083808181608083E0E8F0E0808178
:1015100081608083E1EBF0E0808184608083E0EB98
:10152000F0E0808181608083EAE7F0E08081846080
:1015300080838081826080838081816080838081DC
:10154000806880831092C1000895482F50E0CA013E
:1015500082559F4FFC012491CA0186569F4FFC0182
:1015600094914A575F4FFA013491332309F440C0F4
:10157000222351F1233071F0243028F42130A1F0DE
:10158000223011F514C02630B1F02730C1F02430DC
:10159000D9F404C0809180008F7703C080918000CF
:1015A0008F7D8093800010C084B58F7702C084B592
:1015B0008F7D84BD09C08091B0008F7703C080917A
:1015C000B0008F7D8093B000E32FF0E0EE0FFF1F9F
:1015D000EE58FF4FA591B4912FB7F894662321F4EC
:1015E0008C919095892302C08C91892B8C932FBF6D
:1015F0000895CF93DF930E946A0A0E942402CFE7E6
:10160000DCE00E9415022097E1F30E947F0CF9CFE5
:10161000CF92DF92EF92FF920F931F93CF93DF93BE
:101620007C016B018A01C0E0D0E00FC0D6016D9152
:101630006D01D701ED91FC910190F081E02DC70182
:101640000995C80FD91F015010400115110571F7F8
:10165000CE01DF91CF911F910F91FF90EF90DF901E
:10166000CF900895DC01ED91FC910190F081E02D87
:1016700009950895EF92FF920F931F938C01DC015F
:10168000ED91FC910190F081E02D6DE009957C01D8
:10169000D801ED91FC910190F081E02DC8016AE044
:1016A00009959C012E0D3F1DC9011F910F91FF90BF
:1016B000EF900895CF93DF93EC016115710519F454
:1016C00020E030E00FC0DB010D900020E9F711971A
:1016D000A61BB70BE881F9810280F381E02DAD01F3
:1016E00009959C01C901DF91CF9108954F925F92B6
:1016F0007F928F929F92AF92BF92CF92DF92EF92A2
:10170000FF920F931F93DF93CF93CDB7DEB7A197CF
:101710000FB6F894DEBF0FBECDBF2C01742ECB01E7
:10172000223008F42AE019A231E2C32ED12CCC0ECB
:10173000DD1E822E9924AA24BB24672D752FA501B6
:1017400094010E94920E79018A01C801B701A50196
:1017500094010E94540E472D461B0894C108D108DD
:101760004A3014F4405D01C0495CF6014083E11445
:10177000F1040105110521F07E2C5F2DC801DDCF9C
:10178000C201B6010E945A0BA1960FB6F894DEBFB3
:101790000FBECDBFCF91DF911F910F91FF90EF90C2
:1017A000DF90CF90BF90AF909F908F907F905F9091
:1017B0004F900895CF92DF92EF92FF920F931F9375
:1017C000CF93DF93EC016A017B012115310541F4D0
:1017D000E881F9810190F081E02D642F09951FC007
:1017E0002A303105D1F477FF17C0E881F9810190E3
:1017F000F081E02D6DE209958C0144275527BA014F
:101800004C195D096E097F09CE012AE00E94760B12
:101810009801280F391F04C02AE00E94760B9C0112
:10182000C901DF91CF911F910F91FF90EF90DF9051
:10183000CF900895EF92FF920F931F937B019A012F
:101840000027F7FC0095102FB801A7010E94DA0BC2
:101850001F910F91FF90EF9008950E945A0B0895E9
:10186000EF92FF920F931F937C010E945A0B8C0101
:10187000C7010E943A0B080F191FC8011F910F9151
:10188000FF90EF90089508951F920F920FB60F9258
:1018900011242F933F934F938F939F93EF93FF9335
:1018A0008091C00082FD1DC04091C6002091380388
:1018B000309139032F5F3F4F2F73307080913A037F
:1018C00090913B032817390771F0E0913803F091AC
:1018D0003903E850FD4F4083309339032093380398
:1018E00002C08091C600FF91EF919F918F914F911F
:1018F0003F912F910F900FBE0F901F901895E09180
:101900008C03F0918D03E05CFF4F819191912081D8
:101910003181821B930B8F739070892B11F00E9481
:10192000430C08951F920F920FB60F9211242F931C
:101930003F938F939F93EF93FF9320917C0330917C
:101940007D0380917E0390917F032817390731F43E
:101950008091C1008F7D8093C10014C0E0917E030F
:10196000F0917F03E45CFC4F208180917E03909195
:101970007F0301968F73907090937F0380937E0313
:101980002093C600FF91EF919F918F913F912F91EE
:101990000F900FBE0F901F901895AF92BF92DF92DD
:1019A000EF92FF920F931F93CF93DF93EC017A0195
:1019B0008B01DD24403081EE580780E0680780E02D
:1019C000780711F0DD24D39491E0A92EB12CEC8995
:1019D000FD89DD2069F0C50108A002C0880F991FAC
:1019E0000A94E2F7808360E079E08DE390E005C03F
:1019F000108260E874E88EE190E0A80197010E94EF
:101A0000920E2150304040405040569547953795B2
:101A1000279580E12030380720F0DD2011F0DD240B
:101A2000D6CFE889F9893083EA89FB89208319A216
:101A3000EE89FF89408121E030E0C9010C8C02C0B1
:101A4000880F991F0A94E2F7482B4083EE89FF899B
:101A50004081C9010D8C02C0880F991F0A94E2F7DA
:101A6000482B4083EE89FF894081C9010E8C02C05A
:101A7000880F991F0A94E2F7482B4083EE89FF896B
:101A800080810F8C02C0220F331F0A94E2F7209549
:101A900028232083DF91CF911F910F91FF90EF902A
:101AA000DF90BF90AF900895DC011C96ED91FC9102
:101AB0001D97E05CFF4F2191319180819181281B1E
:101AC000390B2F733070C9010895DC011C96ED911C
:101AD000FC911D97E05CFF4F20813181E054F04084
:101AE000DF01AE5BBF4F8D919C911197281739078D
:101AF00019F42FEF3FEF07C08D919C91E80FF91F6C
:101B00008081282F30E0C9010895DC011C96ED91F9
:101B1000FC911D97E05CFF4F20813181E054F04043
:101B2000DF01AE5BBF4F8D919C911197281739074C
:101B300019F42FEF3FEF10C08D919C911197E80F92
:101B4000F91F20818D919C91119701968F73907050
:101B500011969C938E9330E0C9010895DC01919613
:101B60008C919197882339F05496ED91FC9155977B
:101B7000808186FFF9CF91961C920895CF93DF93D1
:101B8000EC01EE85FF85E05CFF4F20813181E05460
:101B9000F0402F5F3F4F2F733070DF01AE5BBF4FC0
:101BA0008D919C91119728173907D1F3E05CFF4F75
:101BB00080819181E054F040E80FF91F6083EE8549
:101BC000FF85E05CFF4F31832083EE89FF89208110
:101BD00081E090E00F8C02C0880F991F0A94E2F711
:101BE000282B208381E089A3EC89FD898081806492
:101BF000808381E090E0DF91CF910895109283037C
:101C00001092820388EE93E0A0E0B0E0809384031A
:101C100090938503A0938603B093870388E092E0B6
:101C2000909381038093800388EF92E090938D03DB
:101C300080938C038CE393E090938F0380938E03C7
:101C400085EC90E0909391038093900384EC90E076
:101C5000909393038093920380EC90E0909395038C
:101C60008093940381EC90E0909397038093960384
:101C700082EC90E0909399038093980386EC90E037
:101C800090939B0380939A0384E080939C0383E06A
:101C900080939D0387E080939E0385E080939F035C
:101CA00081E08093A0030895629FD001739FF001AB
:101CB000829FE00DF11D649FE00DF11D929FF00DDC
:101CC000839FF00D749FF00D659FF00D9927729F13
:101CD000B00DE11DF91F639FB00DE11DF91FBD019E
:101CE000CF0111240895991B79E004C0991F96171C
:101CF00008F0961B881F7A95C9F78095089597FB81
:101D0000092E07260AD077FD04D02ED006D0002059
:101D10001AF4709561957F4F0895F6F79095819527
:101D20009F4F0895A1E21A2EAA1BBB1BFD010DC0F7
:101D3000AA1FBB1FEE1FFF1FA217B307E407F5077B
:101D400020F0A21BB30BE40BF50B661F771F881F57
:101D5000991F1A9469F760957095809590959B01ED
:101D6000AC01BD01CF010895AA1BBB1B51E107C007
:101D7000AA1FBB1FA617B70710F0A61BB70B881F1B
:101D8000991F5A95A9F780959095BC01CD010895AA
:101D9000EE0FFF1F0590F491E02D0994F894FFCF0A
:101DA0003A002000456E63656E6465722052656C72
:101DB0006179203100456E63656E646572205265FD
:101DC0006C6179203200456E63656E6465722052E5
:101DD000656C6179203300456E63656E64657220C1
:101DE00052656C61792034004170616761722052E4
:101DF000656C6179203100417061676172205265C4
:101E00006C61792032004170616761722052656CAB
:101E100061792033004170616761722052656C61A5
:101E200079203400496E696369616E646F20636F65
:101E30006E74726F6C206465207265676C65746186
:101E40002E2E2E00556E61626C6520746F207379A2
:101E50006E6320776974682074686520525443006B
:101E60005254432068617320736574207468652040
:101E700073797374656D2074696D65000D000B00D6
:101E80000A0009002C0100001F1C1F1E1F1E1F1F1F
:101E90001E1F1E1F00000000F006BF067806810608
:101EA0009606A70600000000BE0D080B540D850D18
:041EB000650DAE0D01
:00000001FF
